{
  "_format": "hh-sol-artifact-1",
  "contractName": "ERC721LendWrapper",
  "sourceName": "contracts/ERC721LendWrapper.sol",
  "abi": [
    {
      "inputs": [
        {
          "internalType": "address",
          "name": "_wrappedTokenAddress",
          "type": "address"
        },
        {
          "internalType": "string",
          "name": "_tokenName",
          "type": "string"
        },
        {
          "internalType": "string",
          "name": "_tokenSymbol",
          "type": "string"
        }
      ],
      "stateMutability": "nonpayable",
      "type": "constructor"
    },
    {
      "anonymous": false,
      "inputs": [
        {
          "indexed": true,
          "internalType": "address",
          "name": "owner",
          "type": "address"
        },
        {
          "indexed": true,
          "internalType": "address",
          "name": "approved",
          "type": "address"
        },
        {
          "indexed": true,
          "internalType": "uint256",
          "name": "tokenId",
          "type": "uint256"
        }
      ],
      "name": "Approval",
      "type": "event"
    },
    {
      "anonymous": false,
      "inputs": [
        {
          "indexed": true,
          "internalType": "address",
          "name": "owner",
          "type": "address"
        },
        {
          "indexed": true,
          "internalType": "address",
          "name": "operator",
          "type": "address"
        },
        {
          "indexed": false,
          "internalType": "bool",
          "name": "approved",
          "type": "bool"
        }
      ],
      "name": "ApprovalForAll",
      "type": "event"
    },
    {
      "anonymous": false,
      "inputs": [
        {
          "indexed": true,
          "internalType": "uint256",
          "name": "tokenId",
          "type": "uint256"
        },
        {
          "indexed": true,
          "internalType": "address",
          "name": "lender",
          "type": "address"
        }
      ],
      "name": "Collected",
      "type": "event"
    },
    {
      "anonymous": false,
      "inputs": [
        {
          "indexed": true,
          "internalType": "uint256",
          "name": "tokenId",
          "type": "uint256"
        },
        {
          "indexed": true,
          "internalType": "address",
          "name": "lender",
          "type": "address"
        },
        {
          "indexed": true,
          "internalType": "address",
          "name": "borrower",
          "type": "address"
        },
        {
          "indexed": false,
          "internalType": "uint256",
          "name": "startTime",
          "type": "uint256"
        },
        {
          "indexed": false,
          "internalType": "uint256",
          "name": "durationInSeconds",
          "type": "uint256"
        }
      ],
      "name": "Lent",
      "type": "event"
    },
    {
      "anonymous": false,
      "inputs": [
        {
          "indexed": true,
          "internalType": "address",
          "name": "from",
          "type": "address"
        },
        {
          "indexed": true,
          "internalType": "address",
          "name": "to",
          "type": "address"
        },
        {
          "indexed": true,
          "internalType": "uint256",
          "name": "tokenId",
          "type": "uint256"
        }
      ],
      "name": "Transfer",
      "type": "event"
    },
    {
      "inputs": [
        {
          "internalType": "address",
          "name": "to",
          "type": "address"
        },
        {
          "internalType": "uint256",
          "name": "tokenId",
          "type": "uint256"
        }
      ],
      "name": "approve",
      "outputs": [],
      "stateMutability": "nonpayable",
      "type": "function"
    },
    {
      "inputs": [
        {
          "internalType": "address",
          "name": "owner",
          "type": "address"
        }
      ],
      "name": "balanceOf",
      "outputs": [
        {
          "internalType": "uint256",
          "name": "",
          "type": "uint256"
        }
      ],
      "stateMutability": "view",
      "type": "function"
    },
    {
      "inputs": [
        {
          "internalType": "uint256",
          "name": "tokenId",
          "type": "uint256"
        }
      ],
      "name": "burn",
      "outputs": [],
      "stateMutability": "nonpayable",
      "type": "function"
    },
    {
      "inputs": [
        {
          "internalType": "uint256",
          "name": "tokenId",
          "type": "uint256"
        }
      ],
      "name": "collect",
      "outputs": [],
      "stateMutability": "nonpayable",
      "type": "function"
    },
    {
      "inputs": [
        {
          "internalType": "uint256",
          "name": "tokenId",
          "type": "uint256"
        }
      ],
      "name": "getApproved",
      "outputs": [
        {
          "internalType": "address",
          "name": "",
          "type": "address"
        }
      ],
      "stateMutability": "view",
      "type": "function"
    },
    {
      "inputs": [
        {
          "internalType": "address",
          "name": "owner",
          "type": "address"
        },
        {
          "internalType": "address",
          "name": "operator",
          "type": "address"
        }
      ],
      "name": "isApprovedForAll",
      "outputs": [
        {
          "internalType": "bool",
          "name": "",
          "type": "bool"
        }
      ],
      "stateMutability": "view",
      "type": "function"
    },
    {
      "inputs": [
        {
          "internalType": "uint256",
          "name": "tokenId",
          "type": "uint256"
        }
      ],
      "name": "isLendActive",
      "outputs": [
        {
          "internalType": "bool",
          "name": "",
          "type": "bool"
        }
      ],
      "stateMutability": "view",
      "type": "function"
    },
    {
      "inputs": [
        {
          "internalType": "uint256",
          "name": "tokenId",
          "type": "uint256"
        }
      ],
      "name": "isLendExpired",
      "outputs": [
        {
          "internalType": "bool",
          "name": "",
          "type": "bool"
        }
      ],
      "stateMutability": "view",
      "type": "function"
    },
    {
      "inputs": [
        {
          "internalType": "uint256",
          "name": "tokenId",
          "type": "uint256"
        },
        {
          "internalType": "address",
          "name": "borrower",
          "type": "address"
        },
        {
          "internalType": "uint256",
          "name": "startTime",
          "type": "uint256"
        },
        {
          "internalType": "uint256",
          "name": "durationInSeconds",
          "type": "uint256"
        }
      ],
      "name": "lendOut",
      "outputs": [],
      "stateMutability": "nonpayable",
      "type": "function"
    },
    {
      "inputs": [
        {
          "internalType": "uint256",
          "name": "",
          "type": "uint256"
        }
      ],
      "name": "lendingDurations",
      "outputs": [
        {
          "internalType": "uint256",
          "name": "startTime",
          "type": "uint256"
        },
        {
          "internalType": "uint256",
          "name": "endTime",
          "type": "uint256"
        }
      ],
      "stateMutability": "view",
      "type": "function"
    },
    {
      "inputs": [],
      "name": "name",
      "outputs": [
        {
          "internalType": "string",
          "name": "",
          "type": "string"
        }
      ],
      "stateMutability": "view",
      "type": "function"
    },
    {
      "inputs": [
        {
          "internalType": "address",
          "name": "operator",
          "type": "address"
        },
        {
          "internalType": "address",
          "name": "from",
          "type": "address"
        },
        {
          "internalType": "uint256",
          "name": "tokenId",
          "type": "uint256"
        },
        {
          "internalType": "bytes",
          "name": "data",
          "type": "bytes"
        }
      ],
      "name": "onERC721Received",
      "outputs": [
        {
          "internalType": "bytes4",
          "name": "",
          "type": "bytes4"
        }
      ],
      "stateMutability": "nonpayable",
      "type": "function"
    },
    {
      "inputs": [
        {
          "internalType": "uint256",
          "name": "tokenId",
          "type": "uint256"
        }
      ],
      "name": "ownerOf",
      "outputs": [
        {
          "internalType": "address",
          "name": "",
          "type": "address"
        }
      ],
      "stateMutability": "view",
      "type": "function"
    },
    {
      "inputs": [
        {
          "internalType": "address",
          "name": "from",
          "type": "address"
        },
        {
          "internalType": "address",
          "name": "to",
          "type": "address"
        },
        {
          "internalType": "uint256",
          "name": "tokenId",
          "type": "uint256"
        }
      ],
      "name": "safeTransferFrom",
      "outputs": [],
      "stateMutability": "nonpayable",
      "type": "function"
    },
    {
      "inputs": [
        {
          "internalType": "address",
          "name": "from",
          "type": "address"
        },
        {
          "internalType": "address",
          "name": "to",
          "type": "address"
        },
        {
          "internalType": "uint256",
          "name": "tokenId",
          "type": "uint256"
        },
        {
          "internalType": "bytes",
          "name": "_data",
          "type": "bytes"
        }
      ],
      "name": "safeTransferFrom",
      "outputs": [],
      "stateMutability": "nonpayable",
      "type": "function"
    },
    {
      "inputs": [
        {
          "internalType": "address",
          "name": "operator",
          "type": "address"
        },
        {
          "internalType": "bool",
          "name": "approved",
          "type": "bool"
        }
      ],
      "name": "setApprovalForAll",
      "outputs": [],
      "stateMutability": "nonpayable",
      "type": "function"
    },
    {
      "inputs": [
        {
          "internalType": "bytes4",
          "name": "interfaceId",
          "type": "bytes4"
        }
      ],
      "name": "supportsInterface",
      "outputs": [
        {
          "internalType": "bool",
          "name": "",
          "type": "bool"
        }
      ],
      "stateMutability": "view",
      "type": "function"
    },
    {
      "inputs": [
        {
          "internalType": "uint256",
          "name": "tokenId",
          "type": "uint256"
        }
      ],
      "name": "surrender",
      "outputs": [],
      "stateMutability": "nonpayable",
      "type": "function"
    },
    {
      "inputs": [],
      "name": "symbol",
      "outputs": [
        {
          "internalType": "string",
          "name": "",
          "type": "string"
        }
      ],
      "stateMutability": "view",
      "type": "function"
    },
    {
      "inputs": [
        {
          "internalType": "uint256",
          "name": "tokenId",
          "type": "uint256"
        }
      ],
      "name": "tokenURI",
      "outputs": [
        {
          "internalType": "string",
          "name": "",
          "type": "string"
        }
      ],
      "stateMutability": "view",
      "type": "function"
    },
    {
      "inputs": [
        {
          "internalType": "address",
          "name": "from",
          "type": "address"
        },
        {
          "internalType": "address",
          "name": "to",
          "type": "address"
        },
        {
          "internalType": "uint256",
          "name": "tokenId",
          "type": "uint256"
        }
      ],
      "name": "transferFrom",
      "outputs": [],
      "stateMutability": "nonpayable",
      "type": "function"
    },
    {
      "inputs": [
        {
          "internalType": "uint256",
          "name": "tokenId",
          "type": "uint256"
        }
      ],
      "name": "virtualOwnerOf",
      "outputs": [
        {
          "internalType": "address",
          "name": "",
          "type": "address"
        }
      ],
      "stateMutability": "view",
      "type": "function"
    },
    {
      "inputs": [],
      "name": "wrappedToken",
      "outputs": [
        {
          "internalType": "contract IERC721",
          "name": "",
          "type": "address"
        }
      ],
      "stateMutability": "view",
      "type": "function"
    },
    {
      "inputs": [
        {
          "internalType": "uint256",
          "name": "",
          "type": "uint256"
        }
      ],
      "name": "wrappedTokenLenders",
      "outputs": [
        {
          "internalType": "address",
          "name": "",
          "type": "address"
        }
      ],
      "stateMutability": "view",
      "type": "function"
    }
  ],
  "bytecode": "0x60806040523480156200001157600080fd5b5060405162003d8f38038062003d8f8339818101604052810190620000379190620001f0565b8181816000908051906020019062000051929190620000b7565b5080600190805190602001906200006a929190620000b7565b50505082600660006101000a81548173ffffffffffffffffffffffffffffffffffffffff021916908373ffffffffffffffffffffffffffffffffffffffff16021790555050505062000436565b828054620000c59062000341565b90600052602060002090601f016020900481019282620000e9576000855562000135565b82601f106200010457805160ff191683800117855562000135565b8280016001018555821562000135579182015b828111156200013457825182559160200191906001019062000117565b5b50905062000144919062000148565b5090565b5b808211156200016357600081600090555060010162000149565b5090565b60006200017e6200017884620002a1565b62000278565b9050828152602081018484840111156200019757600080fd5b620001a48482856200030b565b509392505050565b600081519050620001bd816200041c565b92915050565b600082601f830112620001d557600080fd5b8151620001e784826020860162000167565b91505092915050565b6000806000606084860312156200020657600080fd5b60006200021686828701620001ac565b935050602084015167ffffffffffffffff8111156200023457600080fd5b6200024286828701620001c3565b925050604084015167ffffffffffffffff8111156200026057600080fd5b6200026e86828701620001c3565b9150509250925092565b60006200028462000297565b905062000292828262000377565b919050565b6000604051905090565b600067ffffffffffffffff821115620002bf57620002be620003dc565b5b620002ca826200040b565b9050602081019050919050565b6000620002e482620002eb565b9050919050565b600073ffffffffffffffffffffffffffffffffffffffff82169050919050565b60005b838110156200032b5780820151818401526020810190506200030e565b838111156200033b576000848401525b50505050565b600060028204905060018216806200035a57607f821691505b60208210811415620003715762000370620003ad565b5b50919050565b62000382826200040b565b810181811067ffffffffffffffff82111715620003a457620003a3620003dc565b5b80604052505050565b7f4e487b7100000000000000000000000000000000000000000000000000000000600052602260045260246000fd5b7f4e487b7100000000000000000000000000000000000000000000000000000000600052604160045260246000fd5b6000601f19601f8301169050919050565b6200042781620002d7565b81146200043357600080fd5b50565b61394980620004466000396000f3fe608060405234801561001057600080fd5b50600436106101585760003560e01c806370a08231116100c3578063c87b56dd1161007c578063c87b56dd146103fc578063ce3f865f1461042c578063dbf02d5514610448578063e985e9c514610478578063fd61d10b146104a8578063fe9431a3146104c457610158565b806370a08231146103285780637b9915211461035857806395d89b4114610388578063996c6cc3146103a6578063a22cb465146103c4578063b88d4fde146103e057610158565b806323b872dd1161011557806323b872dd1461025857806342842e0e1461027457806342966c68146102905780635342c39f146102ac5780636352211e146102c857806363a9a985146102f857610158565b806301ffc9a71461015d57806306fdde031461018d578063081812fc146101ab578063095ea7b3146101db578063150b7a02146101f75780631fc7f2df14610227575b600080fd5b610177600480360381019061017291906126aa565b6104f4565b6040516101849190612c17565b60405180910390f35b6101956105d6565b6040516101a29190612c68565b60405180910390f35b6101c560048036038101906101c091906126fc565b610668565b6040516101d29190612b79565b60405180910390f35b6101f560048036038101906101f0919061266e565b6106ed565b005b610211600480360381019061020c9190612537565b610805565b60405161021e9190612c32565b60405180910390f35b610241600480360381019061023c91906126fc565b6108aa565b60405161024f929190612f45565b60405180910390f35b610272600480360381019061026d91906124e8565b6108ce565b005b61028e600480360381019061028991906124e8565b61092e565b005b6102aa60048036038101906102a591906126fc565b61094e565b005b6102c660048036038101906102c19190612725565b6109aa565b005b6102e260048036038101906102dd91906126fc565b610d38565b6040516102ef9190612b79565b60405180910390f35b610312600480360381019061030d91906126fc565b610dea565b60405161031f9190612b79565b60405180910390f35b610342600480360381019061033d919061245a565b610f5f565b60405161034f9190612f2a565b60405180910390f35b610372600480360381019061036d91906126fc565b611017565b60405161037f9190612c17565b60405180910390f35b61039061106e565b60405161039d9190612c68565b60405180910390f35b6103ae611100565b6040516103bb9190612c4d565b60405180910390f35b6103de60048036038101906103d99190612632565b611126565b005b6103fa60048036038101906103f591906125b7565b6112a7565b005b610416600480360381019061041191906126fc565b611309565b6040516104239190612c68565b60405180910390f35b610446600480360381019061044191906126fc565b6113b0565b005b610462600480360381019061045d91906126fc565b611404565b60405161046f9190612b79565b60405180910390f35b610492600480360381019061048d91906124ac565b611437565b60405161049f9190612c17565b60405180910390f35b6104c260048036038101906104bd91906126fc565b6114cb565b005b6104de60048036038101906104d991906126fc565b611554565b6040516104eb9190612c17565b60405180910390f35b60007f80ac58cd000000000000000000000000000000000000000000000000000000007bffffffffffffffffffffffffffffffffffffffffffffffffffffffff1916827bffffffffffffffffffffffffffffffffffffffffffffffffffffffff191614806105bf57507f5b5e139f000000000000000000000000000000000000000000000000000000007bffffffffffffffffffffffffffffffffffffffffffffffffffffffff1916827bffffffffffffffffffffffffffffffffffffffffffffffffffffffff1916145b806105cf57506105ce826115bc565b5b9050919050565b6060600080546105e59061319c565b80601f01602080910402602001604051908101604052809291908181526020018280546106119061319c565b801561065e5780601f106106335761010080835404028352916020019161065e565b820191906000526020600020905b81548152906001019060200180831161064157829003601f168201915b5050505050905090565b600061067382611626565b6106b2576040517f08c379a00000000000000000000000000000000000000000000000000000000081526004016106a990612e0a565b60405180910390fd5b6004600083815260200190815260200160002060009054906101000a900473ffffffffffffffffffffffffffffffffffffffff169050919050565b60006106f882610d38565b90508073ffffffffffffffffffffffffffffffffffffffff168373ffffffffffffffffffffffffffffffffffffffff161415610769576040517f08c379a000000000000000000000000000000000000000000000000000000000815260040161076090612e8a565b60405180910390fd5b8073ffffffffffffffffffffffffffffffffffffffff16610788611692565b73ffffffffffffffffffffffffffffffffffffffff1614806107b757506107b6816107b1611692565b611437565b5b6107f6576040517f08c379a00000000000000000000000000000000000000000000000000000000081526004016107ed90612d8a565b60405180910390fd5b610800838361169a565b505050565b6000600660009054906101000a900473ffffffffffffffffffffffffffffffffffffffff1673ffffffffffffffffffffffffffffffffffffffff163373ffffffffffffffffffffffffffffffffffffffff1614610897576040517f08c379a000000000000000000000000000000000000000000000000000000000815260040161088e90612d2a565b60405180910390fd5b63150b7a0260e01b905095945050505050565b60076020528060005260406000206000915090508060000154908060010154905082565b6108df6108d9611692565b82611753565b61091e576040517f08c379a000000000000000000000000000000000000000000000000000000000815260040161091590612eaa565b60405180910390fd5b610929838383611831565b505050565b610949838383604051806020016040528060008152506112a7565b505050565b61095f610959611692565b82611753565b61099e576040517f08c379a000000000000000000000000000000000000000000000000000000000815260040161099590612eea565b60405180910390fd5b6109a781611a8d565b50565b83600660009054906101000a900473ffffffffffffffffffffffffffffffffffffffff1673ffffffffffffffffffffffffffffffffffffffff16636352211e826040518263ffffffff1660e01b8152600401610a069190612f2a565b60206040518083038186803b158015610a1e57600080fd5b505afa158015610a32573d6000803e3d6000fd5b505050506040513d601f19601f82011682018060405250810190610a569190612483565b73ffffffffffffffffffffffffffffffffffffffff16610a74611692565b73ffffffffffffffffffffffffffffffffffffffff1614610aca576040517f08c379a0000000000000000000000000000000000000000000000000000000008152600401610ac190612cca565b60405180910390fd5b60008311610b0d576040517f08c379a0000000000000000000000000000000000000000000000000000000008152600401610b0490612eca565b60405180910390fd5b600073ffffffffffffffffffffffffffffffffffffffff168473ffffffffffffffffffffffffffffffffffffffff161415610b7d576040517f08c379a0000000000000000000000000000000000000000000000000000000008152600401610b7490612d4a565b60405180910390fd5b60405180604001604052808481526020018385610b9a9190613007565b815250600760008781526020019081526020016000206000820151816000015560208201518160010155905050610bcf611692565b6008600087815260200190815260200160002060006101000a81548173ffffffffffffffffffffffffffffffffffffffff021916908373ffffffffffffffffffffffffffffffffffffffff160217905550610c2a8486611b9e565b8373ffffffffffffffffffffffffffffffffffffffff16610c49611692565b73ffffffffffffffffffffffffffffffffffffffff16867f1bd4f710dc1c84d4867a9306a44d3caebcc5108b54cc9f833f51952db6b296868686604051610c91929190612f45565b60405180910390a4600660009054906101000a900473ffffffffffffffffffffffffffffffffffffffff1673ffffffffffffffffffffffffffffffffffffffff166342842e0e610cdf611692565b30886040518463ffffffff1660e01b8152600401610cff93929190612b94565b600060405180830381600087803b158015610d1957600080fd5b505af1158015610d2d573d6000803e3d6000fd5b505050505050505050565b6000806002600084815260200190815260200160002060009054906101000a900473ffffffffffffffffffffffffffffffffffffffff169050600073ffffffffffffffffffffffffffffffffffffffff168173ffffffffffffffffffffffffffffffffffffffff161415610de1576040517f08c379a0000000000000000000000000000000000000000000000000000000008152600401610dd890612dca565b60405180910390fd5b80915050919050565b6000610df582611554565b15610e0a57610e0382610d38565b9050610f5a565b600073ffffffffffffffffffffffffffffffffffffffff166008600084815260200190815260200160002060009054906101000a900473ffffffffffffffffffffffffffffffffffffffff1673ffffffffffffffffffffffffffffffffffffffff1614610eac576008600083815260200190815260200160002060009054906101000a900473ffffffffffffffffffffffffffffffffffffffff169050610f5a565b600660009054906101000a900473ffffffffffffffffffffffffffffffffffffffff1673ffffffffffffffffffffffffffffffffffffffff16636352211e836040518263ffffffff1660e01b8152600401610f079190612f2a565b60206040518083038186803b158015610f1f57600080fd5b505afa158015610f33573d6000803e3d6000fd5b505050506040513d601f19601f82011682018060405250810190610f579190612483565b90505b919050565b60008073ffffffffffffffffffffffffffffffffffffffff168273ffffffffffffffffffffffffffffffffffffffff161415610fd0576040517f08c379a0000000000000000000000000000000000000000000000000000000008152600401610fc790612daa565b60405180910390fd5b600360008373ffffffffffffffffffffffffffffffffffffffff1673ffffffffffffffffffffffffffffffffffffffff168152602001908152602001600020549050919050565b6000806007600084815260200190815260200160002060405180604001604052908160008201548152602001600182015481525050905060008160000151141580156110665750428160200151105b915050919050565b60606001805461107d9061319c565b80601f01602080910402602001604051908101604052809291908181526020018280546110a99061319c565b80156110f65780601f106110cb576101008083540402835291602001916110f6565b820191906000526020600020905b8154815290600101906020018083116110d957829003601f168201915b5050505050905090565b600660009054906101000a900473ffffffffffffffffffffffffffffffffffffffff1681565b61112e611692565b73ffffffffffffffffffffffffffffffffffffffff168273ffffffffffffffffffffffffffffffffffffffff16141561119c576040517f08c379a000000000000000000000000000000000000000000000000000000000815260040161119390612d0a565b60405180910390fd5b80600560006111a9611692565b73ffffffffffffffffffffffffffffffffffffffff1673ffffffffffffffffffffffffffffffffffffffff16815260200190815260200160002060008473ffffffffffffffffffffffffffffffffffffffff1673ffffffffffffffffffffffffffffffffffffffff16815260200190815260200160002060006101000a81548160ff0219169083151502179055508173ffffffffffffffffffffffffffffffffffffffff16611256611692565b73ffffffffffffffffffffffffffffffffffffffff167f17307eab39ab6107e8899845ad3d59bd9653f200f220920489ca2b5937696c318360405161129b9190612c17565b60405180910390a35050565b6112b86112b2611692565b83611753565b6112f7576040517f08c379a00000000000000000000000000000000000000000000000000000000081526004016112ee90612eaa565b60405180910390fd5b61130384848484611bbc565b50505050565b606061131482611626565b611353576040517f08c379a000000000000000000000000000000000000000000000000000000000815260040161134a90612e6a565b60405180910390fd5b600061135d611c18565b9050600081511161137d57604051806020016040528060008152506113a8565b8061138784611c2f565b604051602001611398929190612b55565b6040516020818303038152906040525b915050919050565b6113b981611017565b6113f8576040517f08c379a00000000000000000000000000000000000000000000000000000000081526004016113ef90612f0a565b60405180910390fd5b61140181611ddc565b50565b60086020528060005260406000206000915054906101000a900473ffffffffffffffffffffffffffffffffffffffff1681565b6000600560008473ffffffffffffffffffffffffffffffffffffffff1673ffffffffffffffffffffffffffffffffffffffff16815260200190815260200160002060008373ffffffffffffffffffffffffffffffffffffffff1673ffffffffffffffffffffffffffffffffffffffff16815260200190815260200160002060009054906101000a900460ff16905092915050565b6114d481610d38565b73ffffffffffffffffffffffffffffffffffffffff166114f2611692565b73ffffffffffffffffffffffffffffffffffffffff1614611548576040517f08c379a000000000000000000000000000000000000000000000000000000000815260040161153f90612e2a565b60405180910390fd5b61155181611ddc565b50565b6000806007600084815260200190815260200160002060405180604001604052908160008201548152602001600182015481525050905060008160000151141580156115b45750428160000151111580156115b3575080602001514211155b5b915050919050565b60007f01ffc9a7000000000000000000000000000000000000000000000000000000007bffffffffffffffffffffffffffffffffffffffffffffffffffffffff1916827bffffffffffffffffffffffffffffffffffffffffffffffffffffffff1916149050919050565b60008073ffffffffffffffffffffffffffffffffffffffff166002600084815260200190815260200160002060009054906101000a900473ffffffffffffffffffffffffffffffffffffffff1673ffffffffffffffffffffffffffffffffffffffff1614159050919050565b600033905090565b816004600083815260200190815260200160002060006101000a81548173ffffffffffffffffffffffffffffffffffffffff021916908373ffffffffffffffffffffffffffffffffffffffff160217905550808273ffffffffffffffffffffffffffffffffffffffff1661170d83610d38565b73ffffffffffffffffffffffffffffffffffffffff167f8c5be1e5ebec7d5bd14f71427d1e84f3dd0314c0f7b2291e5b200ac8c7c3b92560405160405180910390a45050565b600061175e82611626565b61179d576040517f08c379a000000000000000000000000000000000000000000000000000000000815260040161179490612d6a565b60405180910390fd5b60006117a883610d38565b90508073ffffffffffffffffffffffffffffffffffffffff168473ffffffffffffffffffffffffffffffffffffffff16148061181757508373ffffffffffffffffffffffffffffffffffffffff166117ff84610668565b73ffffffffffffffffffffffffffffffffffffffff16145b8061182857506118278185611437565b5b91505092915050565b8273ffffffffffffffffffffffffffffffffffffffff1661185182610d38565b73ffffffffffffffffffffffffffffffffffffffff16146118a7576040517f08c379a000000000000000000000000000000000000000000000000000000000815260040161189e90612e4a565b60405180910390fd5b600073ffffffffffffffffffffffffffffffffffffffff168273ffffffffffffffffffffffffffffffffffffffff161415611917576040517f08c379a000000000000000000000000000000000000000000000000000000000815260040161190e90612cea565b60405180910390fd5b611922838383611f52565b61192d60008261169a565b6001600360008573ffffffffffffffffffffffffffffffffffffffff1673ffffffffffffffffffffffffffffffffffffffff168152602001908152602001600020600082825461197d919061308e565b925050819055506001600360008473ffffffffffffffffffffffffffffffffffffffff1673ffffffffffffffffffffffffffffffffffffffff16815260200190815260200160002060008282546119d49190613007565b92505081905550816002600083815260200190815260200160002060006101000a81548173ffffffffffffffffffffffffffffffffffffffff021916908373ffffffffffffffffffffffffffffffffffffffff160217905550808273ffffffffffffffffffffffffffffffffffffffff168473ffffffffffffffffffffffffffffffffffffffff167fddf252ad1be2c89b69c2b068fc378daa952ba7f163c4a11628f55a4df523b3ef60405160405180910390a4505050565b6000611a9882610d38565b9050611aa681600084611f52565b611ab160008361169a565b6001600360008373ffffffffffffffffffffffffffffffffffffffff1673ffffffffffffffffffffffffffffffffffffffff1681526020019081526020016000206000828254611b01919061308e565b925050819055506002600083815260200190815260200160002060006101000a81549073ffffffffffffffffffffffffffffffffffffffff021916905581600073ffffffffffffffffffffffffffffffffffffffff168273ffffffffffffffffffffffffffffffffffffffff167fddf252ad1be2c89b69c2b068fc378daa952ba7f163c4a11628f55a4df523b3ef60405160405180910390a45050565b611bb8828260405180602001604052806000815250611f57565b5050565b611bc7848484611831565b611bd384848484611fb2565b611c12576040517f08c379a0000000000000000000000000000000000000000000000000000000008152600401611c0990612c8a565b60405180910390fd5b50505050565b606060405180602001604052806000815250905090565b60606000821415611c77576040518060400160405280600181526020017f30000000000000000000000000000000000000000000000000000000000000008152509050611dd7565b600082905060005b60008214611ca9578080611c92906131ff565b915050600a82611ca2919061305d565b9150611c7f565b60008167ffffffffffffffff811115611ceb577f4e487b7100000000000000000000000000000000000000000000000000000000600052604160045260246000fd5b6040519080825280601f01601f191660200182016040528015611d1d5781602001600182028036833780820191505090505b5090505b60008514611dd057600182611d36919061308e565b9150600a85611d459190613248565b6030611d519190613007565b60f81b818381518110611d8d577f4e487b7100000000000000000000000000000000000000000000000000000000600052603260045260246000fd5b60200101907effffffffffffffffffffffffffffffffffffffffffffffffffffffffffffff1916908160001a905350600a85611dc9919061305d565b9450611d21565b8093505050505b919050565b600760008281526020019081526020016000206000808201600090556001820160009055505060006008600083815260200190815260200160002060009054906101000a900473ffffffffffffffffffffffffffffffffffffffff1690506008600083815260200190815260200160002060006101000a81549073ffffffffffffffffffffffffffffffffffffffff0219169055611e7982611a8d565b8073ffffffffffffffffffffffffffffffffffffffff16827f754581136a3c2ab51aca2d58c0aaf816bbac838f0a9a700f866665de57bc909160405160405180910390a3600660009054906101000a900473ffffffffffffffffffffffffffffffffffffffff1673ffffffffffffffffffffffffffffffffffffffff166342842e0e3083856040518463ffffffff1660e01b8152600401611f1c93929190612b94565b600060405180830381600087803b158015611f3657600080fd5b505af1158015611f4a573d6000803e3d6000fd5b505050505050565b505050565b611f618383612149565b611f6e6000848484611fb2565b611fad576040517f08c379a0000000000000000000000000000000000000000000000000000000008152600401611fa490612c8a565b60405180910390fd5b505050565b6000611fd38473ffffffffffffffffffffffffffffffffffffffff16612317565b1561213c578373ffffffffffffffffffffffffffffffffffffffff1663150b7a02611ffc611692565b8786866040518563ffffffff1660e01b815260040161201e9493929190612bcb565b602060405180830381600087803b15801561203857600080fd5b505af192505050801561206957506040513d601f19601f8201168201806040525081019061206691906126d3565b60015b6120ec573d8060008114612099576040519150601f19603f3d011682016040523d82523d6000602084013e61209e565b606091505b506000815114156120e4576040517f08c379a00000000000000000000000000000000000000000000000000000000081526004016120db90612c8a565b60405180910390fd5b805181602001fd5b63150b7a0260e01b7bffffffffffffffffffffffffffffffffffffffffffffffffffffffff1916817bffffffffffffffffffffffffffffffffffffffffffffffffffffffff191614915050612141565b600190505b949350505050565b600073ffffffffffffffffffffffffffffffffffffffff168273ffffffffffffffffffffffffffffffffffffffff1614156121b9576040517f08c379a00000000000000000000000000000000000000000000000000000000081526004016121b090612dea565b60405180910390fd5b6121c281611626565b15612202576040517f08c379a00000000000000000000000000000000000000000000000000000000081526004016121f990612caa565b60405180910390fd5b61220e60008383611f52565b6001600360008473ffffffffffffffffffffffffffffffffffffffff1673ffffffffffffffffffffffffffffffffffffffff168152602001908152602001600020600082825461225e9190613007565b92505081905550816002600083815260200190815260200160002060006101000a81548173ffffffffffffffffffffffffffffffffffffffff021916908373ffffffffffffffffffffffffffffffffffffffff160217905550808273ffffffffffffffffffffffffffffffffffffffff16600073ffffffffffffffffffffffffffffffffffffffff167fddf252ad1be2c89b69c2b068fc378daa952ba7f163c4a11628f55a4df523b3ef60405160405180910390a45050565b600080823b905060008111915050919050565b600061233d61233884612f93565b612f6e565b90508281526020810184848401111561235557600080fd5b61236084828561315a565b509392505050565b600081359050612377816138b7565b92915050565b60008151905061238c816138b7565b92915050565b6000813590506123a1816138ce565b92915050565b6000813590506123b6816138e5565b92915050565b6000815190506123cb816138e5565b92915050565b60008083601f8401126123e357600080fd5b8235905067ffffffffffffffff8111156123fc57600080fd5b60208301915083600182028301111561241457600080fd5b9250929050565b600082601f83011261242c57600080fd5b813561243c84826020860161232a565b91505092915050565b600081359050612454816138fc565b92915050565b60006020828403121561246c57600080fd5b600061247a84828501612368565b91505092915050565b60006020828403121561249557600080fd5b60006124a38482850161237d565b91505092915050565b600080604083850312156124bf57600080fd5b60006124cd85828601612368565b92505060206124de85828601612368565b9150509250929050565b6000806000606084860312156124fd57600080fd5b600061250b86828701612368565b935050602061251c86828701612368565b925050604061252d86828701612445565b9150509250925092565b60008060008060006080868803121561254f57600080fd5b600061255d88828901612368565b955050602061256e88828901612368565b945050604061257f88828901612445565b935050606086013567ffffffffffffffff81111561259c57600080fd5b6125a8888289016123d1565b92509250509295509295909350565b600080600080608085870312156125cd57600080fd5b60006125db87828801612368565b94505060206125ec87828801612368565b93505060406125fd87828801612445565b925050606085013567ffffffffffffffff81111561261a57600080fd5b6126268782880161241b565b91505092959194509250565b6000806040838503121561264557600080fd5b600061265385828601612368565b925050602061266485828601612392565b9150509250929050565b6000806040838503121561268157600080fd5b600061268f85828601612368565b92505060206126a085828601612445565b9150509250929050565b6000602082840312156126bc57600080fd5b60006126ca848285016123a7565b91505092915050565b6000602082840312156126e557600080fd5b60006126f3848285016123bc565b91505092915050565b60006020828403121561270e57600080fd5b600061271c84828501612445565b91505092915050565b6000806000806080858703121561273b57600080fd5b600061274987828801612445565b945050602061275a87828801612368565b935050604061276b87828801612445565b925050606061277c87828801612445565b91505092959194509250565b612791816130c2565b82525050565b6127a0816130d4565b82525050565b6127af816130e0565b82525050565b60006127c082612fc4565b6127ca8185612fda565b93506127da818560208601613169565b6127e381613335565b840191505092915050565b6127f781613136565b82525050565b600061280882612fcf565b6128128185612feb565b9350612822818560208601613169565b61282b81613335565b840191505092915050565b600061284182612fcf565b61284b8185612ffc565b935061285b818560208601613169565b80840191505092915050565b6000612874603283612feb565b915061287f82613346565b604082019050919050565b6000612897601c83612feb565b91506128a282613395565b602082019050919050565b60006128ba602883612feb565b91506128c5826133be565b604082019050919050565b60006128dd602483612feb565b91506128e88261340d565b604082019050919050565b6000612900601983612feb565b915061290b8261345c565b602082019050919050565b6000612923601f83612feb565b915061292e82613485565b602082019050919050565b6000612946601e83612feb565b9150612951826134ae565b602082019050919050565b6000612969602c83612feb565b9150612974826134d7565b604082019050919050565b600061298c603883612feb565b915061299782613526565b604082019050919050565b60006129af602a83612feb565b91506129ba82613575565b604082019050919050565b60006129d2602983612feb565b91506129dd826135c4565b604082019050919050565b60006129f5602083612feb565b9150612a0082613613565b602082019050919050565b6000612a18602c83612feb565b9150612a238261363c565b604082019050919050565b6000612a3b602883612feb565b9150612a468261368b565b604082019050919050565b6000612a5e602983612feb565b9150612a69826136da565b604082019050919050565b6000612a81602f83612feb565b9150612a8c82613729565b604082019050919050565b6000612aa4602183612feb565b9150612aaf82613778565b604082019050919050565b6000612ac7603183612feb565b9150612ad2826137c7565b604082019050919050565b6000612aea601583612feb565b9150612af582613816565b602082019050919050565b6000612b0d603083612feb565b9150612b188261383f565b604082019050919050565b6000612b30601483612feb565b9150612b3b8261388e565b602082019050919050565b612b4f8161312c565b82525050565b6000612b618285612836565b9150612b6d8284612836565b91508190509392505050565b6000602082019050612b8e6000830184612788565b92915050565b6000606082019050612ba96000830186612788565b612bb66020830185612788565b612bc36040830184612b46565b949350505050565b6000608082019050612be06000830187612788565b612bed6020830186612788565b612bfa6040830185612b46565b8181036060830152612c0c81846127b5565b905095945050505050565b6000602082019050612c2c6000830184612797565b92915050565b6000602082019050612c4760008301846127a6565b92915050565b6000602082019050612c6260008301846127ee565b92915050565b60006020820190508181036000830152612c8281846127fd565b905092915050565b60006020820190508181036000830152612ca381612867565b9050919050565b60006020820190508181036000830152612cc38161288a565b9050919050565b60006020820190508181036000830152612ce3816128ad565b9050919050565b60006020820190508181036000830152612d03816128d0565b9050919050565b60006020820190508181036000830152612d23816128f3565b9050919050565b60006020820190508181036000830152612d4381612916565b9050919050565b60006020820190508181036000830152612d6381612939565b9050919050565b60006020820190508181036000830152612d838161295c565b9050919050565b60006020820190508181036000830152612da38161297f565b9050919050565b60006020820190508181036000830152612dc3816129a2565b9050919050565b60006020820190508181036000830152612de3816129c5565b9050919050565b60006020820190508181036000830152612e03816129e8565b9050919050565b60006020820190508181036000830152612e2381612a0b565b9050919050565b60006020820190508181036000830152612e4381612a2e565b9050919050565b60006020820190508181036000830152612e6381612a51565b9050919050565b60006020820190508181036000830152612e8381612a74565b9050919050565b60006020820190508181036000830152612ea381612a97565b9050919050565b60006020820190508181036000830152612ec381612aba565b9050919050565b60006020820190508181036000830152612ee381612add565b9050919050565b60006020820190508181036000830152612f0381612b00565b9050919050565b60006020820190508181036000830152612f2381612b23565b9050919050565b6000602082019050612f3f6000830184612b46565b92915050565b6000604082019050612f5a6000830185612b46565b612f676020830184612b46565b9392505050565b6000612f78612f89565b9050612f8482826131ce565b919050565b6000604051905090565b600067ffffffffffffffff821115612fae57612fad613306565b5b612fb782613335565b9050602081019050919050565b600081519050919050565b600081519050919050565b600082825260208201905092915050565b600082825260208201905092915050565b600081905092915050565b60006130128261312c565b915061301d8361312c565b9250827fffffffffffffffffffffffffffffffffffffffffffffffffffffffffffffffff0382111561305257613051613279565b5b828201905092915050565b60006130688261312c565b91506130738361312c565b925082613083576130826132a8565b5b828204905092915050565b60006130998261312c565b91506130a48361312c565b9250828210156130b7576130b6613279565b5b828203905092915050565b60006130cd8261310c565b9050919050565b60008115159050919050565b60007fffffffff0000000000000000000000000000000000000000000000000000000082169050919050565b600073ffffffffffffffffffffffffffffffffffffffff82169050919050565b6000819050919050565b600061314182613148565b9050919050565b60006131538261310c565b9050919050565b82818337600083830152505050565b60005b8381101561318757808201518184015260208101905061316c565b83811115613196576000848401525b50505050565b600060028204905060018216806131b457607f821691505b602082108114156131c8576131c76132d7565b5b50919050565b6131d782613335565b810181811067ffffffffffffffff821117156131f6576131f5613306565b5b80604052505050565b600061320a8261312c565b91507fffffffffffffffffffffffffffffffffffffffffffffffffffffffffffffffff82141561323d5761323c613279565b5b600182019050919050565b60006132538261312c565b915061325e8361312c565b92508261326e5761326d6132a8565b5b828206905092915050565b7f4e487b7100000000000000000000000000000000000000000000000000000000600052601160045260246000fd5b7f4e487b7100000000000000000000000000000000000000000000000000000000600052601260045260246000fd5b7f4e487b7100000000000000000000000000000000000000000000000000000000600052602260045260246000fd5b7f4e487b7100000000000000000000000000000000000000000000000000000000600052604160045260246000fd5b6000601f19601f8301169050919050565b7f4552433732313a207472616e7366657220746f206e6f6e20455243373231526560008201527f63656976657220696d706c656d656e7465720000000000000000000000000000602082015250565b7f4552433732313a20746f6b656e20616c7265616479206d696e74656400000000600082015250565b7f4d736753656e646572206973206e6f74206f776e6572206f662077726170706560008201527f6420746f6b656e2e000000000000000000000000000000000000000000000000602082015250565b7f4552433732313a207472616e7366657220746f20746865207a65726f2061646460008201527f7265737300000000000000000000000000000000000000000000000000000000602082015250565b7f4552433732313a20617070726f766520746f2063616c6c657200000000000000600082015250565b7f43616e206f6e6c79207265636569766520777261707065642045524337323100600082015250565b7f43616e6e6f74206c656e6420746f20696e76616c696420616464726573730000600082015250565b7f4552433732313a206f70657261746f7220717565727920666f72206e6f6e657860008201527f697374656e7420746f6b656e0000000000000000000000000000000000000000602082015250565b7f4552433732313a20617070726f76652063616c6c6572206973206e6f74206f7760008201527f6e6572206e6f7220617070726f76656420666f7220616c6c0000000000000000602082015250565b7f4552433732313a2062616c616e636520717565727920666f7220746865207a6560008201527f726f206164647265737300000000000000000000000000000000000000000000602082015250565b7f4552433732313a206f776e657220717565727920666f72206e6f6e657869737460008201527f656e7420746f6b656e0000000000000000000000000000000000000000000000602082015250565b7f4552433732313a206d696e7420746f20746865207a65726f2061646472657373600082015250565b7f4552433732313a20617070726f76656420717565727920666f72206e6f6e657860008201527f697374656e7420746f6b656e0000000000000000000000000000000000000000602082015250565b7f6d736753656e6465722829206973206e6f7420746865206f776e6572206f662060008201527f746f6b656e206964000000000000000000000000000000000000000000000000602082015250565b7f4552433732313a207472616e73666572206f6620746f6b656e2074686174206960008201527f73206e6f74206f776e0000000000000000000000000000000000000000000000602082015250565b7f4552433732314d657461646174613a2055524920717565727920666f72206e6f60008201527f6e6578697374656e7420746f6b656e0000000000000000000000000000000000602082015250565b7f4552433732313a20617070726f76616c20746f2063757272656e74206f776e6560008201527f7200000000000000000000000000000000000000000000000000000000000000602082015250565b7f4552433732313a207472616e736665722063616c6c6572206973206e6f74206f60008201527f776e6572206e6f7220617070726f766564000000000000000000000000000000602082015250565b7f537461727454696d652063616e6e6f7420626520300000000000000000000000600082015250565b7f4552433732314275726e61626c653a2063616c6c6572206973206e6f74206f7760008201527f6e6572206e6f7220617070726f76656400000000000000000000000000000000602082015250565b7f4c656e6420686173206e6f742065787069726564000000000000000000000000600082015250565b6138c0816130c2565b81146138cb57600080fd5b50565b6138d7816130d4565b81146138e257600080fd5b50565b6138ee816130e0565b81146138f957600080fd5b50565b6139058161312c565b811461391057600080fd5b5056fea26469706673582212205bd4da980610466750fc3535dee8853aebe00ec6f340290b87e6fc5acc83efe664736f6c63430008040033",
  "linkReferences": {},
  "deployedLinkReferences": {}
}